:020000040800F2
:100000004007002089010008AB2700086120000894
:10001000A92700088F020008992B000800000000A3
:100020000000000000000000000000004928000857
:10003000B902000800000000AD2700088D29000863
:10004000A3010008A3010008A3010008A301000800
:10005000A3010008A3010008A3010008A3010008F0
:10006000A3010008A3010008A3010008A3010008E0
:10007000A3010008A3010008A3010008A3010008D0
:10008000A3010008A3010008A3010008A3010008C0
:10009000A3010008A3010008A3010008A3010008B0
:1000A000A3010008F1290008A3010008A30100082A
:1000B000A3010008A3010008A3010008A301000890
:1000C000A3010008A3010008A3010008A301000880
:1000D000A3010008A3010008A3010008A301000870
:1000E000A3010008A3010008A301000800F002F822
:1000F00000F03AF80AA090E8000C82448344AAF188
:100100000107DA4501D100F02FF8AFF2090EBAE885
:100110000F0013F0010F18BFFB1A43F0010318473B
:10012000702B0000902B0000103A24BF78C878C1D3
:10013000FAD8520724BF30C830C144BF04680C60ED
:10014000704700000023002400250026103A28BF35
:1001500078C1FBD8520728BF30C148BF0B60704739
:100160001FB51FBD10B510BD00F058F81146FFF7C0
:10017000F7FF02F037FD00F076F803B4FFF7F2FF67
:1001800003BC00F07DF8000009488047094800479B
:10019000FEE7FEE7FEE7FEE7FEE7FEE7FEE7FEE737
:1001A000FEE7FEE704480549054A064B7047000094
:1001B000ED290008ED000008400100204007002064
:1001C00040030020400300204FF0000200B513461A
:1001D00094469646203922BFA0E80C50A0E80C5067
:1001E000B1F12001BFF4F7AF090728BFA0E80C5018
:1001F00048BF0CC05DF804EB890028BF40F8042B11
:1002000008BF704748BF20F8022B11F0804F18BF7D
:1002100000F8012B7047704770477047754600F033
:100220002BF8AE4605006946534620F00700854688
:1002300018B020B5FFF7B6FFBDE820404FF000062C
:100240004FF000074FF000084FF0000B21F00701BE
:10025000AC46ACE8C009ACE8C009ACE8C009ACE801
:10026000C0098D46704710B50446AFF300802046A4
:10027000BDE81040FFF781BF00487047E000002054
:1002800001491820ABBEFEE7260002007047FEE7DA
:1002900000F00F01000900EB800001EB4000C0B24C
:1002A00070470A21B0FBF1F201FB1202B0FBF1F042
:1002B00002EB0010C0B270477047000070B5254CCB
:1002C0000A2518B3142020706070A070E0702021FF
:1002D000214800F065FA1F490E3900288878B0FBE4
:1002E000F5F227D00A322271B0FBF5F205FB1200BD
:1002F0000A3060714878B0FBF5F10A31A171B0FBAA
:10030000F5F105FB11000A30E07170BD1148143899
:100310000179B1FBF5F22270B1FBF5F205FB121188
:1003200061704079B0FBF5F1A170B0FBF5F105FB10
:100330001100CBE72271B0FBF5F205FB12006071F2
:100340004878B0FBF5F1A171B0FBF5F105FB1100A8
:10035000DAE7000014000020000C014030B5154918
:1003600014240A22CB7801F10E000A2B01D204706A
:1003700002E0B3FBF2F50570B3FBF2F502FB1533B7
:1003800043700B790A2B01D3B3FBF2F48470B3FBF7
:10039000F2F402FB1433C370022303710023437190
:1003A0004979B1FBF2F38371B1FBF2F302FB131154
:1003B000C17130BD0600002014210D4A01280AD069
:1003C00002280BD003280CD004280DD0052801D119
:1003D0001170517070471171517170479171D171E5
:1003E000704711715171F9E79170D1707047000039
:1003F000140000202DE9F041154E0D460446174625
:100400000421304600F0CCF900281ED1142000F061
:1004100023F8DFF8408004E001221021404600F07C
:10042000EBF90421304600F0BBF90028F4D000229B
:100430001021404600F0E0F92078A84201D3401E88
:100440002070C0B2A84200D22770BDE8F081000041
:1004500000080140000C014070B5044600F002FAAB
:100460000546601C02D004480078044400F0FAF904
:10047000401BA042FAD370BD340000202DE9F84F94
:100480000026DFF89CB20D460446B14658450FD011
:10049000A44884420CD0A448844209D0A348844292
:1004A00006D0A348844203D0BD21A2A002F098FB4D
:1004B00028680104090C01D0000C03D0BE219DA0C6
:1004C00002F08EFB6868DFF8A8A200281ED0012881
:1004D000FCD01128FAD00228F8D01228F6D05045C6
:1004E000F4D0A4498842F1D0A3498842EED0A34970
:1004F0008842EBD0A2498842E8D0A2498842E5D0A0
:100500000328E3D0BF218BA002F06AFB00E10120A9
:1005100000FA06F807EA080747456FD15C450FD097
:10052000804884420CD08048844209D07F4884426D
:1005300006D07F48844203D0CD217EA002F050FB3C
:100540006868A0EB0A02504559D00EDC032875D02C
:1005500006DC002853D0012819D0022869D131E0E7
:10056000112821D0122864D13AE0B2F5881F46D074
:1005700006DCB2F5803F42D0B2F5801F59D13EE093
:10058000B2F5001F3BD0B2F5041F52D137E0E86846
:10059000022807D0012805D0032803D0D52165A063
:1005A00002F01EFBE8683EE0E868022807D0012858
:1005B00005D0032803D0DC215EA002F011FBE8681F
:1005C000001D30E0E868022807D0012805D0032884
:1005D00003D0E32157A002F003FBE868083022E0D3
:1005E000E868022807D0012805D0032803D0EA21B3
:1005F00050A002F0F5FAE8680C3014E087E0A86833
:1006000080B1012811D0022807D0F72149A002F0BB
:10061000E7FAA86830B1012807D04FF00809C4F8FC
:10062000148006E00420814603E04FF00809C4F876
:100630001080FF2F05D8214605E0FFE74FF00000AE
:10064000F1E704F104014FEA860001D9A0F120008E
:100650000B684FF00F0202FA00FC23EA0C0309FAC0
:1006600000FC43EA0C030B606868C0004FD54648A5
:10067000816941F001018161806926F0030100F088
:100680000100009041480B189868B1074FEA117CAF
:1006900002FA0CF290435C4501D100210FE02149A0
:1006A0008C4201D101210AE01F498C4201D1022173
:1006B00005E01E498C4201D1032100E0042101FA2A
:1006C0000CF1014399606868C0023148016801D5A6
:1006D000394300E0B9430160686880022D48016831
:1006E00001D5394300E0B9430160686880032A48B6
:1006F000016801D5394300E0B94301606868C0036F
:100700002648016801D5394300E0B9430160761CF1
:100710002F6837FA06F07FF4FAAEBDE8F88F0000D4
:1007200000080140000C014000100140001401408D
:10073000001801402E2E2F447269766572732F5374
:10074000544D3332463178785F48414C5F4472698A
:100750007665722F5372632F73746D3332663178FE
:10076000785F68616C5F6770696F2E6300000000DE
:1007700000001110000021100000311000001210C4
:100780000000221000003210001002400000014062
:10079000080401400C04014004040140000401402D
:1007A00070B50C00054604D14FF4DA7103A002F0D5
:1007B00017FAA868204000D0012070BD2E2E2F44CB
:1007C0007269766572732F53544D3332463178789F
:1007D0005F48414C5F4472697665722F5372632F94
:1007E00073746D3332663178785F68616C5F6770FF
:1007F000696F2E630000000070B515460C000646B8
:1008000004D14FF4EA7108A002F0EAF945B1012DD4
:1008100004D040F2D51104A002F0E2F9346170BDB9
:100820002004306170BD00002E2E2F447269766561
:1008300072732F53544D3332463178785F48414CB0
:100840005F4472697665722F5372632F73746D33D0
:1008500032663178785F68616C5F6770696F2E63AC
:10086000000000000148806870470000340000204C
:1008700070B504007ED089492068884207D0884935
:10088000884204D040F2DB1186A002F0A9F960682A
:100890009249401E884204D94FF4EE7181A002F0C3
:1008A0009FF9A0684FF4804530B1A84204D040F2CF
:1008B000DD117CA002F094F9E068800A04D04FF4C6
:1008C000EF7178A002F08CF92069A84207D0B0F54A
:1008D000404F04D040F2DF1172A002F081F960694C
:1008E00030B1012804D04FF4F0716EA002F078F915
:1008F000A06930F0FE0004D040F2E11169A002F0DE
:100900006FF9E06930B1402804D04FF4F17165A06F
:1009100002F066F9206A30B1802804D040F2E31179
:1009200060A002F05DF994F83D00002520B984F83C
:100930003C50204600F09AFA242084F83D002068BC
:10094000016821F0010101602068016841F4004163
:1009500001602068016821F40041016000F0E4FCBE
:100960005F4A6168914202D85E4901E002E05E4957
:10097000884201D2012070BD5C492368B0FBF1F1CF
:100980005E6826F03F060E435E606368934206D9B8
:100990004FF4967359434FF47A73B1FBF3F1236824
:1009A000491C1E6A26F03F06314319626168914274
:1009B00010D84900401EB0FBF1F2521CC2F30B02EA
:1009C000042A01D2042023E0B0FBF1F0401CC0F364
:1009D0000B001DE0A368EBB301EBC10202EB0116B3
:1009E000421EB2FBF6F2521C42F4804212054AD07B
:1009F0008BB301EBC10202EB0111401EB0FBF1F021
:100A0000401CC0F30B0040F4804000BF40F40040A5
:100A10002168CA694CF6FF739A431043C861D4E950
:100A20000701084321680A6822F0C00210430860E9
:100A3000D4E90310084321688A6848F2FF339A43D7
:100A400010438860D4E9050108432168CA6822F090
:100A5000FF0201E010E018E01043C8602068016860
:100A600041F0010101602564202084F83D002563E8
:100A700084F83E50002070BD01EB4106421EB2FBDF
:100A8000F6F2521CB2E70120C2E701EB4101401E21
:100A9000B0FBF1F0401CC0F30B00B7E7005400407E
:100AA000005800402E2E2F447269766572732F53C2
:100AB000544D3332463178785F48414C5F44726917
:100AC0007665722F5372632F73746D33326631788B
:100AD000785F68616C5F6932632E63007F1A06007D
:100AE000A086010080841E0000093D0040420F00E6
:100AF0002DE9F84F0025DDF82890984617468A46DC
:100B000004460095FFF7AEFE064694F83D00202807
:100B10007AD11923012286492046009601F0A8FBCC
:100B20000028F5D194F83C0001286DD0012084F80C
:100B30003C0020680168C90703D1016841F0010148
:100B400001602068016821F400610160222084F8BE
:100B50003D00102084F83E0025646762A4F82A80D6
:100B6000608D20857348E06233464A4651462046F0
:100B700001F08EFA00287CD1208DDFF8BC8120277F
:100B800068B1012814D00228206801681ED041F401
:100B9000806101602068416980690090BBE0206845
:100BA000416981690091016841F400710160B2E01E
:100BB0002068016821F48061016072B62068416993
:100BC00081690091016841F400710AE041F400611B
:100BD000016072B62068416981690091016821F461
:100BE0008061016062B696E0032865D801280CD0C8
:100BF00002284B464FF000024146204600960BD09B
:100C000001F036FBA8BB0CE090E032464946204696
:100C100001F0D4FB68BB71E001F02AFB48BB72B65F
:100C200033E02068016821F48061016072B62068B9
:100C30000069616A0870606A401C6062208D401E15
:100C40002085608D401E60853C4846F2A8110068F2
:100C5000B0FBF1F0C0EBC00000EB80000090401E44
:100C6000009007D020684069C04340070DD5009828
:100C7000F5E727E044F8305F6773A573206940F01B
:100C80002000206162B625731CE02068016841F4F1
:100C90000071016020680069616A0870606A401C28
:100CA0006062218D491E2185618D491E618562B674
:100CB00021680969017025E032464946204601F065
:100CC0007DFB10B10120BDE8F88F20680069616AE2
:100CD0000870606A401C6062208D401E81B22185D0
:100CE000608D401E608520684269D243520712D44D
:100CF000032903D1016821F4806101602068006943
:100D0000616A0870606A401C6062208D401E208508
:100D1000608D401E6085208D00287FF465AF84F8CB
:100D20003D7084F83E5084F83C50CCE70220CAE77E
:100D3000020010000000FFFF04000100400000203E
:100D40002DE9F84F1F4690468A460446DDF8289064
:100D5000FFF788FD054694F83D0020287FD1192330
:100D6000012240492046009501F082FA002876D100
:100D700094F83C00012872D0012084F83C002068DF
:100D80000168C90703D1016841F0010101602068D1
:100D9000016821F400610160212084F83D001020E9
:100DA00084F83E0000262664C4F824806785608DA0
:100DB00020852D48E0622B464A465146204601F0E8
:100DC000DDF990B9206841698069009036E02A46D3
:100DD0004946204601F02AFB50B1206C042804D17A
:100DE0002068016841F4007101600120BDE8F88FBE
:100DF000606A216800780861606A401C6062618DE9
:100E0000491E6185218D491E89B221852268536959
:100E1000DB435B070BD451B100781061606A401C62
:100E20006062608D401E6085208D401E20852A46B0
:100E30004946204601F0F0F90028CED1208D002847
:100E4000C5D154F83D0B016841F4007101602020C8
:100E500004F81E09E67766770020C7E7FFE702205F
:100E6000C4E70000020010000000FFFF10B586B0CC
:100E70000021009101910291039100680F4988427D
:100E80001AD10F4CA06940F00800A061A069694622
:100E900000F008000490C020009012200190032070
:100EA00003900848FFF7EAFAE06940F40010E061B7
:100EB000E06900F40010049006B010BD005400403A
:100EC00000100240000C0140024881680278114481
:100ED0008160704734000020074810B5016841F078
:100EE00010010160032000F0C9F8002000F006F8AE
:100EF00000F024F8002010BD0020024070B50D4D18
:100F000004464FF47A712878B1FBF0F00A49096879
:100F1000B1FBF0F000F085FC48B9102C07D200229C
:100F20002146501E00F05AF800206C6070BD012070
:100F300070BD000034000020400000200C4808B5BF
:100F4000816941F001018161816901F00101009134
:100F5000C16941F08051C161C06900F080500090CA
:100F60000448416821F0E06141F08071416008BDB2
:100F7000001002400000014010B5040003D5BD215F
:100F800007A001F02DFE002C09DB04F01F01012059
:100F900088406109890001F1E021C1F8000110BD1C
:100FA0002E2E2F447269766572732F53544D33324F
:100FB000463178785F48414C5F4472697665722F9C
:100FC0005372632F73746D3332663178785F686162
:100FD0006C5F636F727465782E63000070B51546A0
:100FE0000C460646102A03D3A92114A001F0F8FDEF
:100FF000102C03D3AA2111A001F0F2FD1E480068B5
:10100000C0F30223C3F107022046042A00D90422B8
:10101000191D072901D2002300E0DB1E012404FA78
:1010200002F1491E014099409C40641E2C4021431E
:101030003046BDE8704001F0C3BD00002E2E2F44A5
:101040007269766572732F53544D33324631787816
:101050005F48414C5F4472697665722F5372632F0B
:1010600073746D3332663178785F68616C5F636F7B
:10107000727465782E6300000CED00E010B5044634
:1010800007280BD0062C09D0052C07D0042C05D03E
:10109000032C03D0912108A001F0A2FD154904F012
:1010A000070208684FF6FF03184040EA0220124A80
:1010B0001043086010BD00002E2E2F447269766523
:1010C00072732F53544D3332463178785F48414C18
:1010D0005F4472697665722F5372632F73746D3338
:1010E00032663178785F68616C5F636F72746578BF
:1010F0002E6300000CED00E00000FA052DE9F0473A
:101100000F46050078D02868C1070AD1810708D4A6
:10111000410706D4000704D440F236316FA001F035
:101120005FFD47B1012F06D0022F04D040F23731C6
:101130006AA001F055FD774E306800F00700B84214
:1011400009D2306820F0070038433060306800F082
:101150000700B84277D128686F4C810729D540072E
:1011600003D5606840F4E06060602878000703D52C
:10117000606840F460506060A868A0B1802812D018
:10118000902810D0A0280ED0B0280CD0C0280AD0AB
:10119000D02808D0E02806D0F02804D040F25D31F5
:1011A0004EA001F01DFD6068A96820F0F000084322
:1011B00060602878C00737D0686868B101281CD003
:1011C00002281DD04FF4597144A001F009FD686850
:1011D000012812D0022813D020688007002832DAB4
:1011E0006068696820F0030008436060FFF73AFB1D
:1011F000804641F2883910E025E020688003EDE761
:1012000020688001EAE700BFFFF72CFBA0EB080194
:10121000494502D90320BDE8F0876068696800F09D
:101220000C00B0EB810FEFD1306800F00700B8423E
:101230000BD9306820F0070038433060306800F088
:101240000700B84201D00120E5E728784FF4806616
:1012500040074FF4A0674FF4C0684FF4E06914D51D
:10126000E86860B1B0420AD0B84208D0404506D024
:10127000484504D040F2A23118A001F0B1FC6068EA
:10128000E96820F4E060084360602878000715D51D
:10129000286960B1B0420AD0B84208D0404506D0B3
:1012A000484504D040F2A9310CA001F099FC6068D7
:1012B000296920F4605040EAC100606000F044F801
:1012C0006168164AC1F30311515CC84014490860B3
:1012D00014480068FFF712FE00209CE72E2E2F44D2
:1012E0007269766572732F53544D33324631787874
:1012F0005F48414C5F4472697665722F5372632F69
:1013000073746D3332663178785F68616C5F7263D5
:10131000632E63000020024000100240762C00087B
:101320004000002038000020044805490068496852
:10133000044AC1F30221515CC840704740000020BC
:1013400000100240862C00080E4A51680E4801F039
:101350000C03042B11D0082B0FD10C48C1F383438D
:10136000C903C05C0AD55168084AC1F34041921EC6
:10137000515C054A5043B0FBF1F0704704494843C3
:10138000704700000010024000127A00662C00082E
:1013900000093D002DE9F84F04007DD0FA4EFB4DC9
:1013A00020684FF0010A4FF000084FF4803960B117
:1013B000C1070DD1810762D401076ED440076DD4F7
:1013C00040F26511F2A001F00BFC2078C00753D069
:1013D00060684FF4A02740B1484506D0B84204D019
:1013E00040F26B11EAA001F0FBFB6868C0F38100DA
:1013F000012807D06868C0F38100022809D1686815
:10140000C00306D52868800336D560680028C4D09C
:1014100032E06068484503D1286840F4803009E034
:1014200008B1B8420DD0286820F4803028602868C0
:1014300020F480202860606888B1FFF713FA07461F
:1014400009E0286840F480202860E5E7FFF70AFA01
:10145000C01B642877D828688003F7D50CE0FFF715
:1014600001FA074605E000BFFFF7FCF9C01B64283E
:10147000F0D828688003F7D4207880074ED52069FB
:1014800030B1012804D040F29F11C1A001F0A8FBA7
:1014900060691F2808D902E096E042E07BE04FF443
:1014A000D071BBA001F09CFB686810F00C0F07D056
:1014B0006868C0F38100022809D16868C00306D4B7
:1014C0002868800714D5206901287DD110E02069A3
:1014D000B0B1C6F800A0FFF7C5F9074605E000BFA8
:1014E000FFF7C0F9C01B0228B4D828688007F7D5D9
:1014F0002868616920F0F80040EAC10028600DE02A
:10150000C6F80080FFF7AEF9074604E0FFF7AAF936
:10151000C01B02289ED828688007F7D420780007CF
:1015200036D5A94FA06920B3012806D04FF4F07139
:1015300097A001F055FBA069D8B1C7F800A0FFF74C
:1015400091F9074605E054E1FFF78CF9C01B02282A
:101550008ED8686A8007F7D59C484FF4FA51006826
:10156000B0FBF1F0009000BF0098411E0091FAD24C
:101570000EE0C7F80080FFF775F9074605E000BFE9
:10158000FFF770F9C01B0228AED8686A8007F7D44D
:10159000207840076ED5E068002740B1012806D0CA
:1015A000052804D040F20F2179A001F019FBE86969
:1015B000C00008D4E86940F08050E861E86901277C
:1015C00000F08050009000E027E181480168C905E3
:1015D00012D4016841F480710160FFF743F983463A
:1015E00006E000BFFFF73EF9A0EB0B00642891D89E
:1015F00077480068C005F5D5E06801280AD008B131
:10160000052811D0286A20F001002862286A20F0FD
:10161000040002E0286A40F001002862E068A8B1F6
:10162000FFF720F983460DE0286A40F004002862A5
:10163000F0E700BFFFF716F9A0EB0B0141F288308D
:10164000814285D8286A8007F4D50EE0FFF70AF9B1
:10165000834607E0FFF706F9A0EB0B0141F2883063
:10166000814291D8286A8007F4D41FB1E86920F03C
:101670008050E861E06900287ED0012809D0022866
:1016800007D040F2AD2142A001F0AAFAE06900289B
:1016900072D06868C0F381000228E0696DD002282A
:1016A00005D0C6F86080FFF7DDF80446A4E0206AA4
:1016B00030B1484504D040F2B62135A001F090FA8F
:1016C000606A70B3B0F5802F2BD0B0F5002F28D012
:1016D000B0F5402F25D0B0F5801F22D0B0F5A01F67
:1016E0001FD0B0F5C01F1CD0B0F5E01F19D0B0F569
:1016F000001F16D0B0F5101F13D0B0F5201F10D06A
:10170000B0F5301F0DD0B0F5401F0AD0B0F5501F16
:1017100007D0B0F5601F04D040F2B7211CA001F043
:101720005FFAC6F86080FFF79DF8074605E000BF46
:10173000FFF798F8C01B02285BD828688001F7D40F
:10174000206A48450FD1A06838B1B0F5003F04D0F9
:1017500040F2CD210EA001F043FA6868A16820F4A0
:10176000003008436860D4E908010843696821F43F
:1017700074110843686001E051E041E0C6F860A0E0
:10178000FFF770F804462AE00000424200100240D1
:101790002E2E2F447269766572732F53544D333257
:1017A000463178785F48414C5F4472697665722FA4
:1017B0005372632F73746D3332663178785F68616A
:1017C0006C5F7263632E630080044242400000201D
:1017D00000700040FFF746F8001B022809D828686F
:1017E0008001F7D51BE000BFFFF73CF8001B022883
:1017F00002D90320BDE8F88F28688001F4D40EE0F8
:101800000128F7D06868226A00F48031914204D13F
:10181000616A00F47010884201D00120EAE70020DC
:10182000E8E710B5401EB0F1807F01D3012010BD64
:101830004FF0E02460610F21601701F0C1F9002032
:10184000A06107202061002010BD70477047000094
:101850002DE9F047044600682D4E2E4FDFF8B88082
:101860000D464FF08049B0420AD0484508D0B842F2
:1018700006D0404504D040F2A97128A001F0B0F98B
:10188000286890B1102810D020280ED030280CD015
:1018900040280AD0502808D0602806D0702804D0EC
:1018A00040F2AA711DA001F09BF96868802805D05C
:1018B00020B140F2AB7119A001F092F994F83C000C
:1018C000012823D0012284F83C20022084F83D0026
:1018D000216848688B6820F0700C286840EA0C008A
:1018E00048602068B04205D0484503D0B84201D0D6
:1018F000404504D1696823F080031943816084F86E
:101900003D20002084F83C00BDE8F0870220FBE782
:10191000002C014000040040000800402E2E2F44FF
:101920007269766572732F53544D3332463178782D
:101930005F48414C5F4472697665722F5372632F22
:1019400073746D3332663178785F68616C5F746987
:101950006D5F65782E63000010B5040045D03649F0
:10196000206888420DD0B0F1804F0AD033498842B8
:1019700007D03349884204D040F2131131A001F05E
:101980002FF9A06860B110280AD0202808D040287C
:1019900006D0602804D04FF48A712AA001F020F903
:1019A000206950B1B0F5807F07D0B0F5007F04D03A
:1019B00040F2151123A001F013F9E0684FF6FE7113
:1019C000401E884204D94FF48B711EA001F008F923
:1019D000A06930B1802804D040F2171119A001F09D
:1019E000FFF894F83D0010B107E0012010BD002081
:1019F00084F83C00204600F041F8022084F83D00C5
:101A0000211D206800F0FAFF012084F8460084F8C8
:101A10003E0084F83F0084F8400084F8410084F8D8
:101A2000420084F8430084F8440084F8450084F8B8
:101A30003D00002010BD0000002C014000040040CB
:101A4000000800402E2E2F447269766572732F5362
:101A5000544D3332463178785F48414C5F44726967
:101A60007665722F5372632F73746D3332663178DB
:101A7000785F68616C5F74696D2E630008B50068FB
:101A80000B49884212D10B48816941F400618161A0
:101A90008069002200F40060009001211920FFF706
:101AA0009DFABDE808401920FFF766BA08BD00009E
:101AB000002C01400010024010B504460068124995
:101AC00088420DD0B0F1804F0AD01049884207D02B
:101AD0000F49884204D04FF4DD710EA001F080F868
:101AE0002068016A41F21112114207D1016A921075
:101AF000114203D1016821F001010160012084F845
:101B00003D00002010BD0000002C014000040040FA
:101B1000000800402E2E2F447269766572732F5391
:101B2000544D3332463178785F48414C5F44726996
:101B30007665722F5372632F73746D33326631780A
:101B4000785F68616C5F74696D2E63002DE9F05FEA
:101B5000054690F83C000C464FF0000901283CD0A7
:101B60004FF0010A85F83CA0022085F83D0020686E
:101B70004FF480564FF40058B04215D0702813D05F
:101B8000404511D040280FD050280DD060280BD0F0
:101B900050B1102808D0202806D0302804D041F2B7
:101BA000C241AAA001F01CF82868816821F07701E1
:101BB00021F47F418160B4492368B248B34ACF130E
:101BC0004FF0804C502B7CD00FDC202B04D007DC56
:101BD000002BFBD0102B75D11EE10220BDE8F09F39
:101BE000302BF9D0402BF6D1EBE0602B6BD04FF4CB
:101BF000405B702B4ED0B3423DD04345EBD12B68B8
:101C000083420AD0634508D08B4206D0934204D069
:101C100041F2ED418DA000F0E3FFA06850B1B04269
:101C200008D0404506D0584504D041F2F04187A085
:101C300000F0D6FF6068B84209D040B1022806D053
:101C40000A2804D041F2F14180A000F0C9FFE06809
:101C50000F2804D941F2F2417CA000F0C1FFD4E981
:101C60000121E368286800F005FF2868816841F4D5
:101C700080418160E3E02B688342FBD06345F9D06B
:101C80008B42F7D09342F5D041F2CE416FA000F0E5
:101C9000A7FFD4E02B6883420AD0634508D08B426B
:101CA00006D0934204D041F2D54168A000F098FFDD
:101CB000A06870B1B0420CD040450AD0584508D059
:101CC00002E026E0B9E04FE041F2D8415FA000F029
:101CD00087FF6068B84209D040B1022806D00A28C0
:101CE00004D041F2D94159A000F07AFFE0680F28F2
:101CF00004D941F2DA4155A000F072FFD4E9012184
:101D0000E368286800F0B6FE2868816841F0770132
:101D1000AFE72B6883420AD0634508D08B4206D0D8
:101D2000934204D041F2015148A000F059FF60688D
:101D3000B84209D040B1022806D00A2804D041F2A6
:101D4000045142A000F04CFFE0680F2804D941F292
:101D500005513EA000F044FFE2686168286800F089
:101D60009BFE5021286829E02B6883420AD06345F6
:101D700008D08B4206D0934204D041F2115133A0D7
:101D800000F02EFF6068B84209D040B1022806D0AA
:101D90000A2804D041F214512CA000F021FFE06881
:101DA0000F2804D941F2155128A000F019FFE2686C
:101DB0006168286800F081FE6021286800F064FEF8
:101DC0003DE02B6883420AD0634508D08B4206D0A1
:101DD000934204D041F221511CA000F001FF606841
:101DE000B84209D040B1022806D00A2804D041F2F6
:101DF000245116A000F0F4FEE0680F2804D941F247
:101E0000255112A000F0ECFEE2686168286800F03D
:101E100043FE40212868D1E72B6883420AD06345FE
:101E200008D08B4206D0934204D041F2345107A02F
:101E300000F0D6FE21682868C0E74FF0010985F858
:101E40003DA0002085F83C004846C7E62E2E2F44D2
:101E50007269766572732F53544D333246317878F8
:101E60005F48414C5F4472697665722F5372632FED
:101E700073746D3332663178785F68616C5F746952
:101E80006D2E6300002C014000040040000800405B
:101E900070472DE9F04104460068C66805694FF0B7
:101EA0000007A90713D5B10711D5F91E016101205B
:101EB0002077206880698007204602D0FFF7E8FF7E
:101EC00004E000F07EF8204600F07CF827776807F1
:101ED00016D5700714D521686FF004000861022040
:101EE00020772068806910F4407F204602D0FFF7F9
:101EF000CFFF04E000F065F8204600F063F8277794
:101F0000280715D5300713D521686FF00800086140
:101F1000042020772068C0698007204602D0FFF7A0
:101F2000B7FF04E000F04DF8204600F04BF82777AB
:101F3000E80616D5F00614D521686FF01000086188
:101F4000082020772068C06910F4407F204602D026
:101F5000FFF79EFF04E000F034F8204600F032F86E
:101F60002777E80708D0F00706D021686FF0010056
:101F70000861204600F027F8280608D5300606D567
:101F800021686FF0800008612046FFF75EFC68065C
:101F900008D5700606D521686FF04000086120461C
:101FA00000F012F8A8060AD5B00608D521686FF02F
:101FB000200008612046BDE8F041FFF747BCBDE8BE
:101FC000F081704770477047704700002DE9F0417D
:101FD000224C0F460646002210212046FEF70CFC3C
:101FE0000025380601D5012200E0002220212046EC
:101FF000FEF702FC012208212046FEF7FDFB00222D
:1020000008212046FEF7F8FB78066D1C070EEDB29E
:10201000082DE6D30025300601D5012200E000227C
:1020200020212046FEF7E8FB012208212046FEF78A
:10203000E3FB002208212046FEF7DEFB70066D1C44
:10204000060EEDB2082DE6D3012210212046FEF740
:10205000D3FBBDE8F0410120FEF7FEB900080140C6
:10206000FEE701684A69D24352050FD46FF48062DB
:102070004A61002140F8301F2022427381730269B7
:1020800042F0040202610173012070470020704792
:102090002DE9F84F0446C06A1E4693460D46216856
:1020A0000A6842F480620A60082807D0012805D037
:1020B00010F5803F02D0206B112804D12068016800
:1020C00041F4807101604FF001195B4600224946DE
:1020D0002046009600F0CCF84FF4007840B120681C
:1020E0000068C00501D5C4F840800320BDE8F88F22
:1020F0002069DFF884A0B0F5804F0FD0062021685A
:1021000000EAD51747F0F000086133465A460AF155
:102110000601204600F0F4F858BB03E0E8B240F0B6
:1021200001001CE02168E8B2086133465A46514676
:10213000204600F0E5F8E0B9206841698169009126
:10214000016841F4807101605B46002249462046E7
:10215000009600F08DF80028C1D147F0F100216809
:10216000086133465A465146204600F0C9F8002817
:10217000BCD00120BAE7000002000100F8B5044617
:10218000C06A1E460D461746082807D0012805D00C
:1021900010F5803F02D0206B122804D1206801681E
:1021A00041F480710160134600224FF00111204676
:1021B000009600F05DF840B120680068C00502D5C7
:1021C0004FF4007020640320F8BD2069B0F5804F03
:1021D0000ED00620216800EAD51040F0F00008611A
:1021E00033463A460B49204600F08AF878B902E0B7
:1021F00005F0FE0000E0E8B22168086105493346B9
:102200003A46891F204600F07BF80028DCD00120E8
:10221000F8BD00000800010070B516460D460446E2
:102220001EE02046FFF71DFF08B1012070BD681CAD
:1022300016D0FEF717FB801BA84200D885B920688E
:102240004069C04340070BD5002044F8300F2021DF
:102250006173A073216941F0200121612073E4E7DB
:1022600020684069C0434007DBD4002070BD0000F7
:102270002DE9F047984617460D460446C1F3074638
:10228000DDF820902AE000BFB8F1FF3F26D0FEF72E
:10229000E9FAA0EB0901414502D8B8F1000F1DD1C0
:1022A0002068012E16D0806925EA00000004000C89
:1022B00012D00020B84211D1002044F8300F202164
:1022C0006173A073216941F0200121612073012015
:1022D000BDE8F0874069E7E70120EBE72068012EC1
:1022E0000AD0806925EA00000004000C06D0002016
:1022F000B842C9D00020EBE74069F3E70120F7E7D7
:102300002DE9F047984616460D4604464FF0000961
:102310004FF0200AC1F3074723E020684069C0431B
:10232000400515D42068016841F4007101602168FE
:102330006FF480604861C4F8309084F83DA084F860
:102340003E90216C41F00401216484F83C9021E02E
:10235000701C06D0FEF786FAA0EB0800B04203D846
:1023600016B1012F1FD021E02068012F15D0806900
:1023700025EA00000004000C18D000BF44F8309F8C
:1023800084F80DA084F80E90216941F020012161AC
:1023900084F80C900120BDE8F087406925EA000030
:1023A0000004000CEAD12068406901E020688069DF
:1023B00025EA00000004000CAFD1ECE72DE9F04164
:1023C000002590460E460446202728E04069C04379
:1023D000C0060CD454F8301B6FF01000486144F86C
:1023E00010596777A577206A2062257714E0FEF7F9
:1023F00039FAA0EB0800B04200D886B920684069DD
:10240000C04340060BD544F8305F6773A57320695D
:1024100040F02000206125730120BDE8F081206894
:102420004169C9434906D1D40020F6E770B5164684
:102430000D4604461EE02046FFF713FE08B10120BA
:1024400070BD681C16D0FEF70DFA801BA84200D89C
:1024500085B920684069C04300060BD5002044F8C8
:10246000300F20216173A073216941F020012161A7
:102470002073E4E720684069C0430006DBD40020F5
:1024800070BD00007CB506214F4800F04FFA4E4D5C
:102490006D1EAC1D6878072874D2DFE800F0940444
:1024A0000D161F28410017220021A01C00F042FB3E
:1024B00017220021A01C76E03B220021601C00F0C6
:1024C00039FB3B220021601C6DE063220021601D6E
:1024D00000F030FB63220021601D64E00C2201212A
:1024E000201D00F027FB0C220121201D5BE021793B
:1024F000012934D0032932D0052930D007292ED024
:1025000008292CD00A292AD00C2928D004292DD01A
:1025100006292BD0092929D00B2927D0022932D00E
:10252000294A00200A2113321154401C0828FBDBE1
:102530002548133000F04AF861792079CDE900018F
:10254000E3786278A178207800F07FF90020687045
:102550002870BDE87C404FF47A70FDF77DBF1F22E4
:102560000121E01C00F0E6FA1F221AE0E0781E28A4
:1025700001D91E20E0701E220121E01C00F0DAFAD1
:102580001E220EE01FE060798007E07810D01C2842
:1025900001D91C20E0701C220121E01C00F0CAFAC5
:1025A0001C220121E01C02B0BDE87040FDF722BFF3
:1025B0001D2801D91D20E0701D220121E01C00F022
:1025C000B9FA1D22EDE77CBD010000202DE9F041A4
:1025D000074E0546002406F11007285D315D385C82
:1025E000FFF7F4FC641C082CF7DBBDE8F081000069
:1025F0000C0000202DE9F04385B000244A480094E7
:10260000019402940394816941F010018161816910
:1026100001F010010491816941F02001816181691B
:1026200001F020010491816941F004018161816917
:1026300001F004010491816941F008018161806920
:10264000DFF8E88000F008000490002240F6B8416E
:102650004046FEF7D1F8DFF8D89000221021484616
:10266000FEF7CAF84FF460400326CDE9000669463C
:102670003048FDF703FF009669462F480196FDF7A5
:10268000FDFE0720CDE90004694640460294FDF7AF
:10269000F5FE01252820CDE9000569464046CDE933
:1026A0000245FDF7EBFE4FF441600227CDE900053E
:1026B000CDE9024769464046FDF7E0FE4FF49A50E7
:1026C000CDE9000669464046FDF7D8FE802000901F
:1026D0001120CDE90105694640460395FDF7CEFE80
:1026E0004FF60770CDE9000669464846FDF7C6FE7D
:1026F0001020CDE90005CDE9024769464846FDF7BF
:10270000BDFE2020CDE90004694648460294FDF74D
:10271000B5FE0A48416841F0E06141F40041416082
:1027200005B0BDE8F0830000001002400008014041
:10273000000C014000100140001401400000014065
:1027400010B586B0002417480094019402940394B5
:1027500004941349059401603F21C0E901144FF628
:10276000FF71C0E9031444618461FFF7F5F808B113
:1027700072B6FEE74FF48050009069460948FFF7B3
:10278000E5F908B172B6FEE7049404A9054805947A
:10279000FFF75EF8002801D072B6FEE706B010BD64
:1027A000002C014098000020FEE7FEE77047000083
:1027B00011B583B04FF4FA64012303AAD02107486E
:1027C0000094FEF7BDFA012301AAD021034800942A
:1027D000FEF78EF99DF8040004B010BD44000020FF
:1027E00010B50420FFF7E4FFFDF752FD074CE07041
:1027F0000520FFF7DDFFFDF74BFD20710620FFF7F9
:10280000D7FFFDF745FD607110BD000006000020F8
:1028100010B50020FFF7CCFF00F07F00FDF738FD7A
:10282000084C20700220FFF7C3FF00F03F00FDF7C7
:102830002FFDA0700120FFF7BBFFFDF729FD6070A1
:1028400010BD00000600002070472DE9F0419846B9
:10285000DDE9065617460C4600F07F00FDF721FD26
:102860000146002000F09AF904F03F00FDF719FD41
:102870000146022000F092F93846FDF712FD0146AC
:10288000012000F08BF94046FDF70BFD01460420C6
:1028900000F084F92846FDF704FD0146052000F00C
:1028A0007DF93046FDF7FDFCBDE8F041014606200C
:1028B00000F074B970B51B4C607858B11A4D0128FE
:1028C0001DD002281BD003281CD004281AD00528AC
:1028D00018D021E020781425B0FBF5F105FB11009C
:1028E0000F2802D20020FDF7E9FC2078B0FBF5F1BB
:1028F00005FB11000F280FD3FDF730FD0CE0FDF7AD
:10290000DDFC01E0FDF72AFD20212846FDF748FF08
:1029100010B96078FDF750FDBDE8704001481430F3
:10292000FFF754BE00000020000C01402DE9F041EB
:10293000144D0E46044601212846FDF731FF0028BC
:102940001ED11420FDF788FD0F4F04E00122102155
:102950003846FDF751FF01212846FDF721FF0028E9
:10296000F4D0002210213846FDF746FF2078B0420F
:1029700002D200F1010002E002D14FF0000020700D
:10298000BDE8F08100080140000C0140FEF79CBA50
:1029900030B58FB028216846FDF716FC14210AA82F
:1029A000FDF712FC022501200490009510200590EF
:1029B00000244FF46010CDE9084007956846FEF703
:1029C000E9FC08B172B6FEE70F20CDE90A054FF425
:1029D0008060CDE90C4002210AA80E94FEF78EFB20
:1029E000002801D072B6FEE70FB030BD704700007E
:1029F0000148FFF74EBA000098000020F0B50268C9
:102A0000194B1A4C1A4D4FF08047984205D0B842E6
:102A100003D0A04201D0A84203D122F070064A6838
:102A20003243984205D0B84203D0A04201D0A84218
:102A300003D122F44074CA6822434C6922F0800218
:102A4000224302608A68C2620A688262984201D1A7
:102A500009690163012141610169C90703D0016965
:102A600021F001010161F0BD002C01400004004093
:102A70000008004010B5846842EA032224F47F4431
:102A80000A432243826010BD826822F070020A432A
:102A900042F007018160704710B5036A046A24F0B0
:102AA00001040462846924F0F00444EA021423F06F
:102AB0000A020A438461026210BD10B5036A046A07
:102AC00024F010040462846923F0A00324F4704409
:102AD00044EA023243EA01118261016210BD000042
:102AE00070B5114D04462021E878A8700F48FDF715
:102AF00057FEE870A978012906D128B92078401C32
:102B000020700B48FEF7D8FF20783C280BD1FFF748
:102B10007FFE0548801D817819B9407808B9FFF714
:102B20005FFE0020207070BD00000020000C0140FE
:102B3000980000202DE9F041154E0F460446154639
:102B400002213046FDF72CFE00281ED11420FDF78F
:102B500083FCDFF8408004E0012210214046FDF7AD
:102B60004BFE02213046FDF71BFE0028F4D0002268
:102B700010214046FDF740FE2078A84201D8401CB5
:102B80002070C0B2A84200D92770BDE8F0810000D3
:102B900000080140000C0140FEE700001CB50223C4
:102BA0008DF804004FF4FA608DF80510009001AA2A
:102BB000D0210248FEF7C4F81CBD000044000020EC
:102BC0000907090E002804DB00F1E02080F800145A
:102BD000704700F00F0000F1E02080F8141D7047EE
:102BE00070470000FEF778F9FFF7D2FEFFF702FD0D
:102BF000194818494FF4804201601849416000218A
:102C00008160C0E9031241618161C1610162FDF728
:102C10002FFE08B172B6FEE7FFF792FD4FF47A740B
:102C20002046FDF719FC10210720FFF7B7FF002110
:102C30000846FFF7B3FFFFF7EBFDFFF7D1FD204696
:102C4000FDF70AFCFFF71EFC0548FFF749FFFFF7F9
:102C500031FEF7E70054004044000020A086010048
:102C600000000020010202030405060708090A0B00
:102C70000C0D0E0F101000000000000000000102FB
:102C80000304060708090000000001020304000015
:102C9000B02C0008000000204400000028010008BB
:102CA000F42C000844000020FC0600004401000849
:102CB0000000000000000000000000008040201024
:102CC000080402010000000000000000C0F9A4B0E8
:102CD000999282F88090407924301912027800107D
:102CE000FF000000010000001000000000000000D4
:042CF0000024F400C8
:04000005080000ED02
:00000001FF
