:020000040800F2
:10000000B0070020890100081B2C0008B923000854
:10001000192C00088F020008DD31000800000000E4
:10002000000000000000000000000000652D000836
:10003000F9020008000000001D2C0008A12F000894
:10004000A3010008A3010008A3010008A301000800
:10005000A3010008A3010008A3010008A3010008F0
:10006000A3010008A3010008A3010008A3010008E0
:10007000A3010008A3010008A3010008A3010008D0
:10008000A3010008A3010008A3010008A3010008C0
:10009000A3010008A3010008A3010008A3010008B0
:1000A000A3010008A3010008A3010008A3010008A0
:1000B00005300008A3010008A3010008A3010008FF
:1000C000A3010008A3010008A3010008A301000880
:1000D000A3010008A3010008A3010008A301000870
:1000E000A3010008A3010008A301000800F002F822
:1000F00000F03AF80AA090E8000C82448344AAF188
:100100000107DA4501D100F02FF8AFF2090EBAE885
:100110000F0013F0010F18BFFB1A43F0010318473B
:100120007833000098330000103A24BF78C878C1B3
:10013000FAD8520724BF30C830C144BF04680C60ED
:10014000704700000023002400250026103A28BF35
:1001500078C1FBD8520728BF30C148BF0B60704739
:100160001FB51FBD10B510BD00F058F81146FFF7C0
:10017000F7FF03F05DF800F076F803B4FFF7F2FF45
:1001800003BC00F07DF8000009488047094800479B
:10019000FEE7FEE7FEE7FEE7FEE7FEE7FEE7FEE737
:1001A000FEE7FEE704480549054A064B7047000094
:1001B00003300008ED000008B0010020B007002067
:1001C000B0030020B00300204FF0000200B513463A
:1001D00094469646203922BFA0E80C50A0E80C5067
:1001E000B1F12001BFF4F7AF090728BFA0E80C5018
:1001F00048BF0CC05DF804EB890028BF40F8042B11
:1002000008BF704748BF20F8022B11F0804F18BF7D
:1002100000F8012B7047704770477047754600F033
:100220002BF8AE4605006946534620F00700854688
:1002300018B020B5FFF7B6FFBDE820404FF000062C
:100240004FF000074FF000084FF0000B21F00701BE
:10025000AC46ACE8C009ACE8C009ACE8C009ACE801
:10026000C0098D46704710B50446AFF300802046A4
:10027000BDE81040FFF781BF004870474C010020E7
:1002800001491820ABBEFEE7260002007047FEE7DA
:1002900070B50E4B0020DD1DEC1CA11DA27864780A
:1002A0002E5C012E0BD111F81060964207D101EBA4
:1002B00040067678A64202D10120587170BD401CDC
:1002C000C0B20328ECD30020F7E7000000000020B4
:1002D00000F00F01000900EB800001EB4000C0B20C
:1002E00070470A21B0FBF1F201FB1202B0FBF1F002
:1002F00002EB0010C0B270477047000010B520211B
:100300001D4800F03FFB1D4968B3182008701920F4
:1003100048701A2088701B20A1F11403C8709C78C3
:100320000A20B4FBF0F20A320A71B4FBF0F200FBCF
:1003300012420A324A715A78B2FBF0F30A338B71D7
:10034000B2FBF0F300FB13200A30C8710C4C012201
:100350009102204600F042FB20460122BDE81040F9
:10036000D10200F03BBB002014220A54401CC0B252
:100370000828FAD3EAE70000000C01401E00002024
:100380000008014070B52C4C0A2590B30520207060
:100390001C2060701D20A0701E20E07020212748C6
:1003A00000F0F0FA2449143900288878B0FBF5F2FF
:1003B00032D00A322271B0FBF5F205FB12000A308E
:1003C00060714878B0FBF5F10A31A171B0FBF5F12D
:1003D00005FB11000A30E071194C01229102204600
:1003E00000F0FCFA0022E1142046BDE8704000F065
:1003F000F5BA1449087BB0FBF5F22270B0FBF5F2B8
:1004000005FB12006070487BB0FBF5F1A170B0FBFA
:10041000F5F105FB1100C0E72271B0FBF5F205FB19
:10042000120060714878B0FBF5F1A171B0FBF5F1F5
:1004300005FB1100CFE700001E000020000C01406A
:10044000000801403C01002070B51C4914240A2218
:10045000CB7801F114000A2B01D2047002E0B3FB47
:10046000F2F50570B3FBF2F502FB153343700B791F
:100470000A2B01D3B3FBF2F48470B3FBF2F402FB5A
:100480001433C370022303710023437149790C4C68
:10049000B1FBF2F38371B1FBF2F302FB1311C171F3
:1004A00000224FF48061204600F098FA2046BDE813
:1004B00070400122D10200F091BA00000A00002031
:1004C0000008014070B5294C054615202070681CB5
:1004D00060700020A070505D0E4608B1162000E04C
:1004E0001720E0702021224800F04CFA020016F894
:1004F00015204FF00A00B2FBF0F206EB450123D0C5
:100500000A32227116F81520B2FBF0F300FB132219
:100510000A3262714A78B2FBF0F20A32A27149786B
:10052000B1FBF0F200FB12100A30E071114C002216
:100530004FF48061204600F051FA0022E114204679
:10054000BDE8704000F04ABA227116F81520B2FBDF
:10055000F0F300FB132262714A78B2FBF0F2A27151
:100560004978B1FBF0F200FB1210DEE71E0000201C
:10057000000C0140000801401422164901281CD03B
:1005800007281AD00A2818D00D2816D0022817D00C
:10059000082815D00B2813D00E2811D0032812D00C
:1005A000042813D0062811D009280FD00C280DD00C
:1005B000052801D10A704A7070470A714A71704764
:1005C0008A71CA7170470A714A71F9E78A70CA70F4
:1005D000704700001E0000202DE9F041154D0F4628
:1005E000044616460421284600F0CCF900281BD109
:1005F000142000F023F8DFF8408004E001221021ED
:10060000404600F0EBF90421284600F0BBF9002831
:10061000F4D000221021404600F0E0F92078B842E2
:1006200004D9A0F101002070BDE8F081FCD1267052
:10063000FAE7000000080140000C014070B50446D4
:1006400000F002FA0546601C02D004480078044419
:1006500000F0FAF9401BA042FAD370BD4800002018
:100660002DE9F84F0026DFF89CB20D460446B1464E
:1006700058450FD0A44884420CD0A448844209D0E5
:10068000A348844206D0A348844203D0BD21A2A03F
:1006900002F0C8FD28680104090C01D0000C03D049
:1006A000BE219DA002F0BEFD6868DFF8A8A2002868
:1006B0001ED00128FCD01128FAD00228F8D0122828
:1006C000F6D05045F4D0A4498842F1D0A3498842DD
:1006D000EED0A3498842EBD0A2498842E8D0A24993
:1006E0008842E5D00328E3D0BF218BA002F09AFD19
:1006F00000E1012000FA06F807EA080747456FD134
:100700005C450FD0804884420CD08048844209D098
:100710007F48844206D07F48844203D0CD217EA00A
:1007200002F080FD6868A0EB0A02504559D00EDC4B
:10073000032875D006DC002853D0012819D00228E0
:1007400069D131E0112821D0122864D13AE0B2F504
:10075000881F46D006DCB2F5803F42D0B2F5801F3C
:1007600059D13EE0B2F5001F3BD0B2F5041F52D183
:1007700037E0E868022807D0012805D0032803D015
:10078000D52165A002F04EFDE8683EE0E868022849
:1007900007D0012805D0032803D0DC215EA002F099
:1007A00041FDE868001D30E0E868022807D0012814
:1007B00005D0032803D0E32157A002F033FDE868F9
:1007C000083022E0E868022807D0012805D0032875
:1007D00003D0EA2150A002F025FDE8680C3014E0B7
:1007E00087E0A86880B1012811D0022807D0F7213E
:1007F00049A002F017FDA86830B1012807D04FF0DA
:100800000809C4F8148006E00420814603E04FF094
:100810000809C4F81080FF2F05D8214605E0FFE73E
:100820004FF00000F1E704F104014FEA860001D91E
:10083000A0F120000B684FF00F0202FA00FC23EA3F
:100840000C0309FA00FC43EA0C030B606868C00063
:100850004FD54648816941F001018161806926F0E8
:10086000030100F00100009041480B189868B1079F
:100870004FEA117C02FA0CF290435C4501D1002151
:100880000FE021498C4201D101210AE01F498C422D
:1008900001D1022105E01E498C4201D1032100E073
:1008A000042101FA0CF1014399606868C0023148E3
:1008B000016801D5394300E0B943016068688002EE
:1008C0002D48016801D5394300E0B94301606868EB
:1008D00080032A48016801D5394300E0B94301602B
:1008E0006868C0032648016801D5394300E0B94370
:1008F0000160761C2F6837FA06F07FF4FAAEBDE887
:10090000F88F000000080140000C01400010014079
:1009100000140140001801402E2E2F4472697665A4
:1009200072732F53544D3332463178785F48414CBF
:100930005F4472697665722F5372632F73746D33DF
:1009400032663178785F68616C5F6770696F2E63BB
:100950000000000000001110000021100000311004
:10096000000012100000221000003210001002409F
:1009700000000140080401400C040140040401404F
:100980000004014070B50C00054604D14FF4DA7143
:1009900003A002F047FCA868204000D0012070BDF1
:1009A0002E2E2F447269766572732F53544D333255
:1009B000463178785F48414C5F4472697665722FA2
:1009C0005372632F73746D3332663178785F686168
:1009D0006C5F6770696F2E630000000070B515468C
:1009E0000C00064604D14FF4EA7108A002F01AFC8C
:1009F00045B1012D04D040F2D51104A002F012FC43
:100A0000346170BD2004306170BD00002E2E2F4473
:100A10007269766572732F53544D3332463178784C
:100A20005F48414C5F4472697665722F5372632F41
:100A300073746D3332663178785F68616C5F6770AC
:100A4000696F2E6300000000014880687047000055
:100A50004800002070B504007ED089492068884293
:100A600007D08849884204D040F2DB1186A002F00A
:100A7000D9FB60689249401E884204D94FF4EE7158
:100A800081A002F0CFFBA0684FF4804530B1A842AE
:100A900004D040F2DD117CA002F0C4FBE068800AC3
:100AA00004D04FF4EF7178A002F0BCFB2069A8429B
:100AB00007D0B0F5404F04D040F2DF1172A002F031
:100AC000B1FB606930B1012804D04FF4F0716EA021
:100AD00002F0A8FBA06930F0FE0004D040F2E11162
:100AE00069A002F09FFBE06930B1402804D04FF4C8
:100AF000F17165A002F096FB206A30B1802804D025
:100B000040F2E31160A002F08DFB94F83D00002557
:100B100020B984F83C50204600F09AFA242084F84A
:100B20003D002068016821F0010101602068016832
:100B300041F4004101602068016821F40041016036
:100B400000F0E4FC5F4A6168914202D85E4901E02E
:100B500002E05E49884201D2012070BD5C492368F1
:100B6000B0FBF1F15E6826F03F060E435E606368FD
:100B7000934206D94FF4967359434FF47A73B1FBFD
:100B8000F3F12368491C1E6A26F03F0631431962BF
:100B90006168914210D84900401EB0FBF1F2521C2E
:100BA000C2F30B02042A01D2042023E0B0FBF1F0CF
:100BB000401CC0F30B001DE0A368EBB301EBC102C6
:100BC00002EB0116421EB2FBF6F2521C42F48042C6
:100BD00012054AD08BB301EBC10202EB0111401E9A
:100BE000B0FBF1F0401CC0F30B0040F4804000BFAC
:100BF00040F400402168CA694CF6FF739A431043E1
:100C0000C861D4E90701084321680A6822F0C002DC
:100C100010430860D4E90310084321688A6848F249
:100C2000FF339A4310438860D4E9050108432168E3
:100C3000CA6822F0FF0201E010E018E01043C8602B
:100C40002068016841F0010101602564202084F8DA
:100C50003D00256384F83E50002070BD01EB410645
:100C6000421EB2FBF6F2521CB2E70120C2E701EBD2
:100C70004101401EB0FBF1F0401CC0F30B00B7E790
:100C800000540040005800402E2E2F4472697665B3
:100C900072732F53544D3332463178785F48414C4C
:100CA0005F4472697665722F5372632F73746D336C
:100CB00032663178785F68616C5F6932632E6300F9
:100CC0007F1A0600A086010080841E0000093D00F6
:100CD00040420F002DE9F84F0025DDF82890984696
:100CE00017468A4604460095FFF7AEFE064694F87E
:100CF0003D0020287AD119230122864920460096FA
:100D000001F062FC0028F5D194F83C0001286DD078
:100D1000012084F83C0020680168C90703D10168FC
:100D200041F0010101602068016821F40061016067
:100D3000222084F83D00102084F83E00256467627C
:100D4000A4F82A80608D20857348E06233464A46C5
:100D50005146204601F048FB00287CD1208DDFF869
:100D6000BC81202768B1012814D0022820680168BE
:100D70001ED041F480610160206841698069009063
:100D8000BBE02068416981690091016841F400710C
:100D90000160B2E02068016821F48061016072B6F0
:100DA0002068416981690091016841F400710AE09D
:100DB00041F40061016072B6206841698169009167
:100DC000016821F48061016062B696E0032865D86D
:100DD00001280CD002284B464FF000024146204625
:100DE00000960BD001F0F0FBA8BB0CE090E032467F
:100DF0004946204601F08EFC68BB71E001F0E4FB3F
:100E000048BB72B633E02068016821F4806101605C
:100E100072B620680069616A0870606A401C60628E
:100E2000208D401E2085608D401E60853C4846F226
:100E3000A8110068B0FBF1F0C0EBC00000EB80002F
:100E40000090401E009007D020684069C0434007D2
:100E50000DD50098F5E727E044F8305F6773A57378
:100E6000206940F02000206162B625731CE02068F4
:100E7000016841F40071016020680069616A0870CE
:100E8000606A401C6062218D491E2185618D491E6A
:100E9000618562B621680969017025E032464946DC
:100EA000204601F037FC10B10120BDE8F88F206822
:100EB0000069616A0870606A401C6062208D401E93
:100EC00081B22185608D401E608520684269D243D1
:100ED000520712D4032903D1016821F48061016013
:100EE00020680069616A0870606A401C6062208D39
:100EF000401E2085608D401E6085208D00287FF477
:100F000065AF84F83D7084F83E5084F83C50CCE7DF
:100F10000220CAE7020010000000FFFF04000100E9
:100F2000540000202DE9F84F1F4690468A4604469B
:100F3000DDF82890FFF788FD054694F83D0020284D
:100F40007FD11923012240492046009501F03CFB46
:100F5000002876D194F83C00012872D0012084F852
:100F60003C0020680168C90703D1016841F0010114
:100F700001602068016821F400610160212084F88B
:100F80003D00102084F83E0000262664C4F824802A
:100F90006785608D20852D48E0622B464A46514684
:100FA000204601F097FA90B9206841698069009065
:100FB00036E02A464946204601F0E4FB50B1206C59
:100FC000042804D12068016841F400710160012007
:100FD000BDE8F88F606A216800780861606A401C8B
:100FE0006062618D491E6185218D491E89B221850E
:100FF00022685369DB435B070BD451B10078106161
:10100000606A401C6062608D401E6085208D401EBD
:1010100020852A464946204601F0AAFA0028CED16A
:10102000208D0028C5D154F83D0B016841F40071B2
:101030000160202004F81E09E67766770020C7E7E4
:10104000FFE70220C4E70000020010000000FFFFDD
:1010500010B586B0002100910191029103910068C2
:101060000F4988421AD10F4CA06940F00800A061D6
:10107000A069694600F008000490C020009012208A
:101080000190032003900848FFF7EAFAE06940F472
:101090000010E061E06900F40010049006B010BD9B
:1010A0000054004000100240000C014002488168DA
:1010B000027811448160704748000020074810B54D
:1010C000016841F010010160032000F0C9F8002020
:1010D00000F006F800F024F8002010BD00200240C7
:1010E00070B50D4D04464FF47A712878B1FBF0F0DD
:1010F0000A490968B1FBF0F000F085FC48B9102CF2
:1011000007D200222146501E00F05AF800206C60E1
:1011100070BD012070BD0000480000205400002078
:101120000C4808B5816941F001018161816901F0D4
:1011300001010091C16941F08051C161C06900F0B5
:10114000805000900448416821F0E06141F0007156
:10115000416008BD001002400000014010B50400CD
:1011600003D5BD2107A002F05DF8002C09DB04F0D7
:101170001F01012088406109890001F1E021C1F8C7
:10118000000110BD2E2E2F447269766572732F53A5
:10119000544D3332463178785F48414C5F44726930
:1011A0007665722F5372632F73746D3332663178A4
:1011B000785F68616C5F636F727465782E6300009E
:1011C00070B515460C460646102A03D3A92114A073
:1011D00002F028F8102C03D3AA2111A002F022F863
:1011E0001E480068C0F30223C3F107022046042A08
:1011F00000D90422191D072901D2002300E0DB1EBB
:10120000012404FA02F1491E014099409C40641EE9
:101210002C4021433046BDE8704001F0F3BF000090
:101220002E2E2F447269766572732F53544D3332CC
:10123000463178785F48414C5F4472697665722F19
:101240005372632F73746D3332663178785F6861DF
:101250006C5F636F727465782E6300000CED00E0C4
:1012600010B5044607280BD0062C09D0052C07D052
:10127000042C05D0032C03D0912108A001F0D2FF4B
:10128000154904F0070208684FF6FF03184040EACA
:101290000220124A1043086010BD00002E2E2F4479
:1012A0007269766572732F53544D333246317878B4
:1012B0005F48414C5F4472697665722F5372632FA9
:1012C00073746D3332663178785F68616C5F636F19
:1012D000727465782E6300000CED00E00000FA05E2
:1012E0002DE9F0470F46050078D02868C1070AD1DC
:1012F000810708D4410706D4000704D440F23631F0
:101300006FA001F08FFF47B1012F06D0022F04D04C
:1013100040F237316AA001F085FF774E306800F067
:101320000700B84209D2306820F007003843306027
:10133000306800F00700B84277D128686F4C810709
:1013400029D5400703D5606840F4E06060602878E4
:10135000000703D5606840F460506060A868A0B1E1
:10136000802812D0902810D0A0280ED0B0280CD001
:10137000C0280AD0D02808D0E02806D0F02804D011
:1013800040F25D314EA001F04DFF6068A96820F089
:10139000F000084360602878C00737D0686868B1FB
:1013A00001281CD002281DD04FF4597144A001F02F
:1013B00039FF6868012812D0022813D020688007FE
:1013C000002832DA6068696820F003000843606032
:1013D000FFF73AFB804641F2883910E025E02068AB
:1013E0008003EDE720688001EAE700BFFFF72CFBF0
:1013F000A0EB0801494502D90320BDE8F0876068E9
:10140000696800F00C00B0EB810FEFD1306800F09C
:101410000700B8420BD9306820F00700384330602D
:10142000306800F00700B84201D00120E5E72878D5
:101430004FF4806640074FF4A0674FF4C0684FF444
:10144000E06914D5E86860B1B0420AD0B84208D06B
:10145000404506D0484504D040F2A23118A001F022
:10146000E1FE6068E96820F4E06008436060287885
:10147000000715D5286960B1B0420AD0B84208D03B
:10148000404506D0484504D040F2A9310CA001F0F7
:10149000C9FE6068296920F4605040EAC1006060BC
:1014A00000F044F86168164AC1F30311515CC8406A
:1014B0001449086014480068FFF712FE00209CE7FA
:1014C0002E2E2F447269766572732F53544D33322A
:1014D000463178785F48414C5F4472697665722F77
:1014E0005372632F73746D3332663178785F68613D
:1014F0006C5F7263632E63000020024000100240A4
:101500007E340008540000204C00002004480549A7
:1015100000684968044AC1F30221515CC840704721
:1015200054000020001002408E3400080E4A51681A
:101530000E4801F00C03042B11D0082B0FD10C48DE
:10154000C1F38343C903C05C0AD55168084AC1F39B
:101550004041921E515C054A5043B0FBF1F0704788
:1015600004494843704700000010024000127A000E
:101570006E34000800093D002DE9F84F04007DD0CD
:10158000FA4EFB4D20684FF0010A4FF000084FF46F
:10159000803960B1C1070DD1810762D401076ED4D3
:1015A00040076DD440F26511F2A001F03BFE2078B7
:1015B000C00753D060684FF4A02740B1484506D01B
:1015C000B84204D040F26B11EAA001F02BFE68682B
:1015D000C0F38100012807D06868C0F381000228A9
:1015E00009D16868C00306D52868800336D56068CD
:1015F0000028C4D032E06068484503D1286840F430
:10160000803009E008B1B8420DD0286820F480305D
:101610002860286820F480202860606888B1FFF77F
:1016200013FA074609E0286840F480202860E5E7BF
:10163000FFF70AFAC01B642877D828688003F7D51B
:101640000CE0FFF701FA074605E000BFFFF7FCF9E1
:10165000C01B6428F0D828688003F7D4207880075E
:101660004ED5206930B1012804D040F29F11C1A0AD
:1016700001F0D8FD60691F2808D902E096E042E039
:101680007BE04FF4D071BBA001F0CCFD686810F096
:101690000C0F07D06868C0F38100022809D1686880
:1016A000C00306D42868800714D5206901287DD19D
:1016B00010E02069B0B1C6F800A0FFF7C5F90746F1
:1016C00005E000BFFFF7C0F9C01B0228B4D82868A6
:1016D0008007F7D52868616920F0F80040EAC1006A
:1016E00028600DE0C6F80080FFF7AEF9074604E079
:1016F000FFF7AAF9C01B02289ED828688007F7D4F4
:101700002078000736D5A94FA06920B3012806D05C
:101710004FF4F07197A001F085FDA069D8B1C7F82A
:1017200000A0FFF791F9074605E054E1FFF78CF9B7
:10173000C01B02288ED8686A8007F7D59C484FF4F2
:10174000FA510068B0FBF1F0009000BF0098411E14
:101750000091FAD20EE0C7F80080FFF775F907464E
:1017600005E000BFFFF770F9C01B0228AED8686A19
:101770008007F7D4207840076ED5E068002740B195
:10178000012806D0052804D040F20F2179A001F0ED
:1017900049FDE869C00008D4E86940F08050E8617C
:1017A000E869012700F08050009000E027E18148BF
:1017B0000168C90512D4016841F480710160FFF726
:1017C00043F9834606E000BFFFF73EF9A0EB0B00AC
:1017D000642891D877480068C005F5D5E0680128ED
:1017E0000AD008B1052811D0286A20F0010028622B
:1017F000286A20F0040002E0286A40F00100286214
:10180000E068A8B1FFF720F983460DE0286A40F0B0
:1018100004002862F0E700BFFFF716F9A0EB0B0108
:1018200041F28830814285D8286A8007F4D50EE0DD
:10183000FFF70AF9834607E0FFF706F9A0EB0B0173
:1018400041F28830814291D8286A8007F4D41FB1D0
:10185000E86920F08050E861E06900287ED0012826
:1018600009D0022807D040F2AD2142A001F0DAFCF5
:10187000E069002872D06868C0F381000228E0693E
:101880006DD0022805D0C6F86080FFF7DDF8044669
:10189000A4E0206A30B1484504D040F2B62135A01A
:1018A00001F0C0FC606A70B3B0F5802F2BD0B0F5AA
:1018B000002F28D0B0F5402F25D0B0F5801F22D0C2
:1018C000B0F5A01F1FD0B0F5C01F1CD0B0F5E01FB1
:1018D00019D0B0F5001F16D0B0F5101F13D0B0F519
:1018E000201F10D0B0F5301F0DD0B0F5401F0AD02A
:1018F000B0F5501F07D0B0F5601F04D040F2B721FB
:101900001CA001F08FFCC6F86080FFF79DF8074629
:1019100005E000BFFFF798F8C01B02285BD82868D5
:101920008001F7D4206A48450FD1A06838B1B0F5DE
:10193000003F04D040F2CD210EA001F073FC686896
:10194000A16820F4003008436860D4E90801084326
:10195000696821F474110843686001E051E041E0D6
:10196000C6F860A0FFF770F804462AE00000424283
:10197000001002402E2E2F447269766572732F5329
:10198000544D3332463178785F48414C5F44726938
:101990007665722F5372632F73746D3332663178AC
:1019A000785F68616C5F7263632E630080044242FB
:1019B0005400002000700040FFF746F8001B02288A
:1019C00009D828688001F7D51BE000BFFFF73CF875
:1019D000001B022802D90320BDE8F88F2868800187
:1019E000F4D40EE00128F7D06868226A00F4803150
:1019F000914204D1616A00F47010884201D0012044
:101A0000EAE70020E8E710B5401EB0F1807F01D37F
:101A1000012010BD4FF0E02460610F21601701F03C
:101A2000F1FB0020A06107202061002010BD70475D
:101A3000704700002DE9F047044600682D4E2E4FF8
:101A4000DFF8B8800D464FF08049B0420AD04845D3
:101A500008D0B84206D0404504D040F2A97128A071
:101A600001F0E0FB286890B1102810D020280ED09B
:101A700030280CD040280AD0502808D0602806D042
:101A8000702804D040F2AA711DA001F0CBFB686859
:101A9000802805D020B140F2AB7119A001F0C2FB43
:101AA00094F83C00012823D0012284F83C20022035
:101AB00084F83D00216848688B6820F0700C286825
:101AC00040EA0C0048602068B04205D0484503D089
:101AD000B84201D0404504D1696823F0800319431E
:101AE000816084F83D20002084F83C00BDE8F08748
:101AF0000220FBE7002C01400004004000080040E9
:101B00002E2E2F447269766572732F53544D3332E3
:101B1000463178785F48414C5F4472697665722F30
:101B20005372632F73746D3332663178785F6861F6
:101B30006C5F74696D5F65782E63000010B50400FA
:101B400045D03649206888420DD0B0F1804F0AD088
:101B50003349884207D03349884204D040F21311F8
:101B600031A001F05FFBA06860B110280AD02028E6
:101B700008D0402806D0602804D04FF48A712AA0EB
:101B800001F050FB206950B1B0F5807F07D0B0F56F
:101B9000007F04D040F2151123A001F043FBE06860
:101BA0004FF6FE71401E884204D94FF48B711EA07F
:101BB00001F038FBA06930B1802804D040F2171141
:101BC00019A001F02FFB94F83D0010B107E00120AF
:101BD00010BD002084F83C00204600F041F80220AF
:101BE00084F83D00211D206801F020FA012084F8CE
:101BF000460084F83E0084F83F0084F8400084F8F2
:101C0000410084F8420084F8430084F8440084F8DA
:101C1000450084F83D00002010BD0000002C01406C
:101C200000040040000800402E2E2F4472697665A3
:101C300072732F53544D3332463178785F48414C9C
:101C40005F4472697665722F5372632F73746D33BC
:101C500032663178785F68616C5F74696D2E6300FD
:101C600008B501681048B1F1804F0BD00F4A91427E
:101C700007D1C16941F00401C161C06900F00400ED
:101C8000009008BDC16941F00101C161C069002235
:101C900000F00100009001211C20FFF791FABDE83F
:101CA00008401C20FFF75ABA00100240000800400C
:101CB0002DE9F04107460068174C184D184E4FF0BB
:101CC0008048A0420AD0404508D0A84206D0B04281
:101CD00004D040F2951113A001F0A4FA97F83D004A
:101CE000012802D00120BDE8F081022087F83D00E4
:101CF0003868A04205D0404503D0A84201D0B04288
:101D000004D1816801F00701062903D0016841F080
:101D1000010101600020E6E7002C014000040040C2
:101D2000000800402E2E2F447269766572732F537F
:101D3000544D3332463178785F48414C5F44726984
:101D40007665722F5372632F73746D3332663178F8
:101D5000785F68616C5F74696D2E63002DE9F041F6
:101D6000074600681A4C1B4D1B4E4FF08048A0429E
:101D70000AD0404508D0A84206D0B04204D04FF463
:101D8000E87116A001F04EFA97F83D00012802D044
:101D90000120BDE8F081022087F83D003868C16865
:101DA00041F00101C1603868A04205D0404503D030
:101DB000A84201D0B04204D1816801F00701062990
:101DC00003D0016841F0010101600020E1E700005B
:101DD000002C014000040040000800402E2E2F443B
:101DE0007269766572732F53544D33324631787869
:101DF0005F48414C5F4472697665722F5372632F5E
:101E000073746D3332663178785F68616C5F7469C2
:101E10006D2E630010B504460068124988420DD04B
:101E2000B0F1804F0AD01049884207D00F4988424C
:101E300004D04FF4DD710EA001F0F4F92068016ABE
:101E400041F21112114207D1016A9210114203D1DD
:101E5000016821F001010160012084F83D000020AB
:101E600010BD0000002C01400004004000080040AC
:101E70002E2E2F447269766572732F53544D333270
:101E8000463178785F48414C5F4472697665722FBD
:101E90005372632F73746D3332663178785F686183
:101EA0006C5F74696D2E63002DE9F05F054690F854
:101EB0003C000C464FF0000901283CD04FF0010ACD
:101EC00085F83CA0022085F83D0020684FF480563C
:101ED0004FF40058B04215D0702813D0404511D0AF
:101EE00040280FD050280DD060280BD050B11028BA
:101EF00008D0202806D0302804D041F2C241AAA040
:101F000001F090F92868816821F0770121F47F4180
:101F10008160B4492368B248B34ACF134FF0804C74
:101F2000502B7CD00FDC202B04D007DC002BFBD007
:101F3000102B75D11EE10220BDE8F09F302BF9D0A7
:101F4000402BF6D1EBE0602B6BD04FF4405B702B55
:101F50004ED0B3423DD04345EBD12B6883420AD0EB
:101F6000634508D08B4206D0934204D041F2ED4144
:101F70008DA001F057F9A06850B1B04208D040459B
:101F800006D0584504D041F2F04187A001F04AF94B
:101F90006068B84209D040B1022806D00A2804D0AF
:101FA00041F2F14180A001F03DF9E0680F2804D929
:101FB00041F2F2417CA001F035F9D4E90121E36856
:101FC000286801F06FF82868816841F480418160D9
:101FD000E3E02B688342FBD06345F9D08B42F7D016
:101FE0009342F5D041F2CE416FA001F01BF9D4E04D
:101FF0002B6883420AD0634508D08B4206D09342B7
:1020000004D041F2D54168A001F00CF9A06870B18C
:10201000B0420CD040450AD0584508D002E026E036
:10202000B9E04FE041F2D8415FA001F0FBF86068F1
:10203000B84209D040B1022806D00A2804D041F2A3
:10204000D94159A001F0EEF8E0680F2804D941F217
:10205000DA4155A001F0E6F8D4E90121E3682868E7
:1020600001F020F82868816841F07701AFE72B681C
:1020700083420AD0634508D08B4206D0934204D0F5
:1020800041F2015148A001F0CDF86068B84209D092
:1020900040B1022806D00A2804D041F2045142A0DF
:1020A00001F0C0F8E0680F2804D941F205513EA0C4
:1020B00001F0B8F8E2686168286801F005F850217D
:1020C000286829E02B6883420AD0634508D08B42F8
:1020D00006D0934204D041F2115133A001F0A2F88E
:1020E0006068B84209D040B1022806D00A2804D05E
:1020F00041F214512CA001F095F8E0680F2804D9A2
:1021000041F2155128A001F08DF8E2686168286855
:1021100000F0EBFF6021286800F0CEFF3DE02B6867
:1021200083420AD0634508D08B4206D0934204D044
:1021300041F221511CA001F075F86068B84209D045
:1021400040B1022806D00A2804D041F2245116A03A
:1021500001F068F8E0680F2804D941F2255112A077
:1021600001F060F8E2686168286800F0ADFF402186
:102170002868D1E72B6883420AD0634508D08B4298
:1021800006D0934204D041F2345107A001F04AF83E
:1021900021682868C0E74FF0010985F83DA00020BC
:1021A00085F83C004846C7E62E2E2F4472697665B6
:1021B00072732F53544D3332463178785F48414C17
:1021C0005F4472697665722F5372632F73746D3337
:1021D00032663178785F68616C5F74696D2E630078
:1021E000002C0140000400400008004070472DE929
:1021F000F04104460068C66805694FF00007A9076A
:1022000013D5B10711D5F91E01610120207720688F
:1022100080698007204602D0FFF7E8FF04E000F065
:102220007EF8204600F07CF82777680716D57007FF
:1022300014D521686FF0040008610220207720681F
:10224000806910F4407F204602D0FFF7CFFF04E002
:1022500000F065F8204600F063F82777280715D5C9
:10226000300713D521686FF008000861042020773B
:102270002068C0698007204602D0FFF7B7FF04E05E
:1022800000F04DF8204600F04BF82777E80616D509
:10229000F00614D521686FF010000861082020773F
:1022A0002068C06910F4407F204602D0FFF79EFFEF
:1022B00004E000F034F8204600F032F82777E80711
:1022C00008D0F00706D021686FF0010008612046B1
:1022D00000F027F8280608D5300606D521686FF0EB
:1022E000800008612046FFF7A2FB680608D570064B
:1022F00006D521686FF040000861204600F012F812
:10230000A8060AD5B00608D521686FF0200008613C
:102310002046BDE8F041FFF78BBBBDE8F081704778
:1023200070477047704700002DE9F041214C0F467F
:102330000646002210212046FEF750FB00253806F5
:1023400001D5012200E0002220212046FEF746FBB5
:10235000012208212046FEF741FB002208212046E9
:10236000FEF73CFB78066D1C070EEDB2082DE6D398
:102370000025300601D5012200E000222021204660
:10238000FEF72CFB012208212046FEF727FB002246
:1023900008212046FEF722FB70066D1C060EEDB2EA
:1023A000082DE6D32046BDE8F04101221021FEF7BA
:1023B00015BB000000080140FEE701684A69D243EE
:1023C00052050FD46FF480624A61002140F8301F3B
:1023D000202242738173026942F004020261017398
:1023E00001207047002070472DE9F84F0446C06A6D
:1023F0001E4693460D4621680A6842F480620A60D0
:10240000082807D0012805D010F5803F02D0206BA6
:10241000112804D12068016841F4807101604FF0F7
:1024200001195B46002249462046009600F0CCF890
:102430004FF4007840B120680068C00501D5C4F8A9
:1024400040800320BDE8F88F2069DFF884A0B0F554
:10245000804F0FD00620216800EAD51747F0F00022
:10246000086133465A460AF10601204600F0F4F8A6
:1024700058BB03E0E8B240F001001CE02168E8B27C
:10248000086133465A465146204600F0E5F8E0B967
:102490002068416981690091016841F4807101609F
:1024A0005B46002249462046009600F08DF8002841
:1024B000C1D147F0F1002168086133465A465146C0
:1024C000204600F0C9F80028BCD00120BAE700007F
:1024D00002000100F8B50446C06A1E460D461746C4
:1024E000082807D0012805D010F5803F02D0206BC6
:1024F000122804D12068016841F4807101601346FC
:1025000000224FF001112046009600F05DF840B126
:1025100020680068C00502D54FF4007020640320D5
:10252000F8BD2069B0F5804F0ED00620216800EA82
:10253000D51040F0F000086133463A460B4920467A
:1025400000F08AF878B902E005F0FE0000E0E8B299
:1025500021680861054933463A46891F204600F044
:102560007BF80028DCD00120F8BD00000800010045
:1025700070B516460D4604461EE02046FFF71DFFC7
:1025800008B1012070BD681C16D0FEF75DFA801BF3
:10259000A84200D885B920684069C04340070BD5E0
:1025A000002044F8300F20216173A073216941F0AD
:1025B000200121612073E4E720684069C04340079F
:1025C000DBD4002070BD00002DE9F0479846174687
:1025D0000D460446C1F30746DDF820902AE000BF0F
:1025E000B8F1FF3F26D0FEF72FFAA0EB09014145D5
:1025F00002D8B8F1000F1DD12068012E16D08069D5
:1026000025EA00000004000C12D00020B84211D1CD
:10261000002044F8300F20216173A073216941F03C
:102620002001216120730120BDE8F0874069E7E7C0
:102630000120EBE72068012E0AD0806925EA00001E
:102640000004000C06D00020B842C9D00020EBE7FF
:102650004069F3E70120F7E72DE9F0479846164671
:102660000D4604464FF000094FF0200AC1F307471A
:1026700023E020684069C043400515D42068016804
:1026800041F40071016021686FF480604861C4F812
:10269000309084F83DA084F83E90216C41F0040114
:1026A000216484F83C9021E0701C06D0FEF7CCF940
:1026B000A0EB0800B04203D816B1012F1FD021E0D3
:1026C0002068012F15D0806925EA00000004000C65
:1026D00018D000BF44F8309F84F80DA084F80E9005
:1026E000216941F02001216184F80C900120BDE8AE
:1026F000F087406925EA00000004000CEAD1206858
:10270000406901E02068806925EA00000004000CAF
:10271000AFD1ECE72DE9F041002590460E46044686
:10272000202728E04069C043C0060CD454F8301B71
:102730006FF01000486144F810596777A577206A58
:102740002062257714E0FEF77FF9A0EB0800B04285
:1027500000D886B920684069C04340060BD544F8CC
:10276000305F6773A573206940F0200020612573F6
:102770000120BDE8F08120684169C9434906D1D4F0
:102780000020F6E770B516460D4604461EE02046CA
:10279000FFF713FE08B1012070BD681C16D0FEF7CC
:1027A00053F9801BA84200D885B920684069C0430E
:1027B00000060BD5002044F8300F20216173A07370
:1027C000216941F0200121612073E4E7206840691C
:1027D000C0430006DBD4002070BD000010B54FF4EC
:1027E0007A742046FDF72AFF1021072000F0F8FC3C
:1027F0000E48FFF7B3FA0D484830FFF759FA0B4976
:10280000802348310A4A01F1480000F00CFD00F035
:1028100075FA00F05BFA00F003FA0448903000F01B
:102820003BFD2046BDE81040FDF708BFAC0000208E
:10283000000801402DE9FC417E4A0F21101F00F0E5
:1028400057FB7C4E0027761FF01D7178C41C00F1E9
:102850000905102976D2DFE801F0EB08111A232CC4
:1028600045818C95A1AAB3BFC8D517220021A01C11
:1028700000F082FC17220021A01CBEE03B220021B8
:10288000601C00F079FC3B220021601CB5E0632253
:102890000021601D00F070FC63220021601DACE08F
:1028A0000C220121201D00F067FC0C220121201DBB
:1028B000A3E02179012921D003291FD005291DD0AA
:1028C00007291BD0082919D00A2917D00C2915D09F
:1028D00004291AD0062918D0092916D00B2914D09A
:1028E000022920D05348B77001220021801C00F03B
:1028F00043FC504801220021801C7EE01F22012160
:10290000E01C00F039FC1F220AE0E0781E2801D903
:102910001E20E0701E220121E01C00F02DFC1E2272
:102920000121E01C69E060798007E0780BD01C2869
:1029300001D91C20E0701C220121E01C00F01CFCCD
:102940001C22EDE774E01D2801D91D20E0701D2236
:102950000121E01C00F010FC1D22E1E735481722A0
:1029600000210B3000F008FC3248172200210B3008
:1029700043E03B220021681C00F0FEFB3B220021CB
:10298000681C3AE00121B1700A4607460021401C4C
:1029900000F0F2FB01220021781C2EE0172200211A
:1029A000A81C00F0E9FB17220021A81C25E03B220F
:1029B0000021E81C00F0E0FB3B220021E81C1CE0A9
:1029C0000221B170074601220021801C00F0D4FBD7
:1029D00001220021B81C10E017220021281D00F060
:1029E000CBFB17220021281D07E03B220021681D98
:1029F00000F0C2FB3B220021681D02B0BDE8F0419F
:102A0000FDF7EABD61792079CDE90001E3786278CC
:102A1000A178207800F0F0F906480B3000F0A4F916
:102A200077703770BDE8FC414FF47A70FDF706BE51
:102A3000BDE8FC81050000202DE9F04385B00024AD
:102A40003E480094019402940394816941F010017E
:102A50008161816901F010010491816941F02001D7
:102A60008161816901F020010491816941F00401D3
:102A70008161816901F004010491816941F00801DB
:102A800081618069DFF8B88000F0080004900022BE
:102A900040F6B8414046FDF7A1FFDFF8A8900022BC
:102AA00010214846FDF79AFF4FF460400325CDE919
:102AB000000569462448FDF7D3FD0720CDE9000451
:102AC000694640460294FDF7CBFDB8200126022757
:102AD000CDE90006CDE9024769464046FDF7C0FD55
:102AE00049F24030CDE9000569464046FDF7B8FDA2
:102AF0004FF60F70CDE9000569464846FDF7B0FD79
:102B0000A802CDE90006CDE9024769464046FDF737
:102B1000A7FD1020CDE90006CDE9024769464846E9
:102B2000FDF79EFD2020CDE9000469464846029449
:102B3000FDF796FD05B0BDE8F083000000100240EF
:102B400000080140000C01400010014010B586B0A3
:102B500000241648009401940294039404944FF0C6
:102B600080410594016041F61F41C0E90114142120
:102B7000C0E903148461FEF7E1FF08B172B6FEE715
:102B80004FF48050009069460848FFF78DF908B16E
:102B900072B6FEE7049404A904480594FEF74AFFC0
:102BA000002801D072B6FEE706B010BDAC000020D0
:102BB00010B586B000241748009401940294039441
:102BC00004941349059401604721C0E901144FF6AC
:102BD000FF71C0E903148461FEF7B0FF08B172B65B
:102BE000FEE74FF48050009069460A48FFF75CF911
:102BF00008B172B6FEE7049404A906480594FEF7EE
:102C000019FF002801D072B6FEE706B010BD000023
:102C100000080040F4000020FEE7FEE770470000D7
:102C200070B5082000F03AF8FDF752FB1A4C2070FE
:102C3000092000F033F8FDF74BFB6070102000F026
:102C40002DF8FDF745FBA070112000F027F8FDF7E7
:102C50003FFBE070122000F021F8FDF739FB2071F6
:102C6000132000F01BF8FDF733FB6071142000F017
:102C700015F8FDF72DFB0021074A01240B46093A00
:102C800020FA01F5ED0701D0545400E05354491CDB
:102C9000C9B20329F4D370BD1000002011B583B070
:102CA0004FF4FA64012303AAD02107480094FEF7E9
:102CB00039F9012301AAD02103480094FEF70AF84C
:102CC0009DF8040004B010BD5800002010B5042089
:102CD000FFF7E4FFFDF7FCFA074CE0700520FFF773
:102CE000DDFFFDF7F5FA20710620FFF7D7FFFDF7AE
:102CF000EFFA607110BD00000A00002010B500203E
:102D0000FFF7CCFF00F07F00FDF7E2FA084C2070DF
:102D10000220FFF7C3FF00F03F00FDF7D9FAA070D3
:102D20000120FFF7BBFFFDF7D3FA607010BD000074
:102D30000A000020010010B509480ED020210446E9
:102D4000FDF720FE012806D0002210212046BDE814
:102D50001040FDF743BE0122F7E700221021F6E7FD
:102D6000000C01407047000070B505460078FDF783
:102D7000B8FA0146082000F033FA6878FDF7B1FA96
:102D80000146092000F02CFAA878FDF7AAFA0146BE
:102D9000102000F025FAE878FDF7A3FA014611208B
:102DA00000F01EFA2879FDF79CFA0146122000F087
:102DB00017FA6879FDF795FA0146132000F010FA2A
:102DC00000200C4B01211A5C002A01FA00F202D00B
:102DD0002243D4B200E01440401CC0B20328F2D316
:102DE0002046FDF77EFABDE870400146142000F051
:102DF000F7B90000070000202DE9F0419846DDE911
:102E0000065617460C4600F07F00FDF76AFA0146A9
:102E1000002000F0E5F904F03F00FDF762FA0146FA
:102E2000022000F0DDF93846FDF75BFA014601208B
:102E300000F0D6F94046FDF754FA0146042000F0B0
:102E4000CFF92846FDF74DFA0146052000F0C8F9F4
:102E50003046FDF746FABDE8F0410146062000F095
:102E6000BFB9000010B5204C6078C8B1012825D04A
:102E7000022823D0032824D0042822D0052820D0DB
:102E8000062807D3E21D02F10901A078FDF71AFB1D
:102E90006078E0B120211548FDF774FDA0B116E07F
:102EA000607910B1FDF72AFAF2E720781421B0FB1F
:102EB000F1F201FB12000F2803D20020FDF762FAA5
:102EC000E6E7FDF7C1FAE3E76078FDF755FB064951
:102ED000A079054A16311E32095C105C0832105C7C
:102EE000BDE81040FFF720BA00000020000C0140B0
:102EF0002DE9F047284D884604461746012128460B
:102F0000FDF740FD002830D11420FDF797FBFDF7B9
:102F10009BFD0646DFF884A0A94607E001221021A8
:102F20005046FDF75BFDFDF78FFD851B01214846EF
:102F3000FDF728FD0028F1D0002210215046FDF7B2
:102F40004DFD3878002101280ED0A5F2F51040F291
:102F5000E73290420ED2207848B1401E2070C8203F
:102F6000BDE8F047FDF76ABB3970BDE8F0874FF464
:102F7000FA70F5E740F2DC50854202D384F8008015
:102F8000F3E72078404503D200F101002070ECE720
:102F9000EBD12170E9E7000000080140000C01407E
:102FA000FEF784B830B58FB028216846FDF70CF9DC
:102FB00014210AA8FDF708F901210804CDE9001041
:102FC0000024029402250491CDE907504FF4E0104B
:102FD00009906846FEF7D0FA08B172B6FEE70F20F6
:102FE000CDE90A054FF48060CDE90C4002210AA822
:102FF0000E94FEF775F9002801D072B6FEE70FB007
:1030000030BD704710B50748FFF7F1F8064908785A
:10301000072801D2401C00E000200870BDE81040E5
:10302000FFF720BFAC00002006000020F0B50268CA
:10303000194B1A4C1A4D4FF08047984205D0B842B0
:1030400003D0A04201D0A84203D122F070064A6802
:103050003243984205D0B84203D0A04201D0A842E2
:1030600003D122F44074CA6822434C6922F08002E2
:10307000224302608A68C2620A688262984201D171
:1030800009690163012141610169C90703D001692F
:1030900021F001010161F0BD002C0140000400405D
:1030A0000008004010B5846842EA032224F47F44FB
:1030B0000A432243826010BD826822F070020A43F4
:1030C00042F007018160704710B5036A046A24F07A
:1030D00001040462846924F0F00444EA021423F039
:1030E0000A020A438461026210BD10B5036A046AD1
:1030F00024F010040462846923F0A00324F47044D3
:1031000044EA023243EA01118261016210BD00000B
:1031100070B5164D044620212879E8701448FDF753
:1031200031FC00B101202871E97881431DD0687815
:1031300000281AD120783B2806D0401C2070BDE81A
:1031400070400C4800F0A8B8FFF7D8FDFDF7A0F8D4
:103150000020207005480A3081780029EFD140789E
:103160000028ECD1FFF7B2FDE9E770BD00000020B8
:10317000000C01403C0100202DE9F041154D0F46A7
:103180000446164602212846FDF7FCFB00281BD109
:103190001420FDF753FADFF8408004E001221021EB
:1031A0004046FDF71BFC02212846FDF7EBFB0028FB
:1031B000F4D0002210214046FDF710FC2078B042E8
:1031C00004D200F101002070BDE8F081FCD127702D
:1031D000FAE7000000080140000C0140FEE7000093
:1031E0001CB502238DF804004FF4FA608DF8051029
:1031F000009001AAD0210248FDF794FE1CBD0000FA
:10320000580000200907090E002804DB00F1E02027
:1032100080F80014704700F00F0000F1E02080F803
:10322000141D704770470260816083807047000002
:10323000FDF744FFFFF7B6FEFFF7FEFB1348124908
:103240004FF4804201601249416000218160C0E971
:10325000031241618161C1610162FDF7FBFB08B1AD
:1032600072B6FEE7FFF7A4FCFFF770FCFFF7B6FAB3
:10327000084C00BFFFF7DEFA0648FFF749FF607908
:10328000FFF758FDF6E7000000540040580000200A
:10329000A0860100000000202DE9F04F0446002028
:1032A0008BB0054606460746804681460A900121B6
:1032B000204600F0C4F8A18800222068FDF78EFBAC
:1032C0001220FDF7BBF9A068FEF7F2FC00212046B2
:1032D00000F0B5F8A1684FF0000A0968C1F824A011
:1032E0004FF4FA7B05E0A0680068406A80B2584558
:1032F00043D8A1882068FDF745FB0128F3D0A168D9
:103300000968C1F824A003E0406A80B2584534D867
:10331000A1882068FDF736FB0028A0680068F3D07C
:10332000416AC0F824A003E080B2B0F5FA7F24D847
:10333000A1882068FDF726FB0128A0680068406A84
:10334000F2D04FF0000BA1680968C1F824A006E094
:10335000A0680068406A80B2B0F5FA7F0DD8A188F5
:103360002068FDF70FFB0028F2D0A1680968C1F8BA
:1033700024A006E0B0F5FA7F03D900200BB0BDE829
:10338000F08FA1882068FDF7FDFA0128A068006889
:10339000406A80B2EED001461538092801D20020DB
:1033A00005E03D39132901D30A9801E001200A9074
:1033B0000DF80B000BF1010BBBF1280FC3DBA0686C
:1033C000FEF728FD00216846425C491C2A4452064B
:1033D000150E0829F8DB0821425C491C3A445206C4
:1033E000170E1029F8DB1021425C491C32445206AA
:1033F000160E1829F8DB1821435C491C03EB080260
:1034000052064FEA12682029F6DB2021435C491C52
:1034100003EB090252064FEA12692829F6DB680815
:103420007108461806EB580505EB57034FEA590299
:10343000DBB29342A2D12173607301209EE71FB5D6
:10344000002200920192029203920122012909D0E6
:10345000002906D181880091039200686946FDF732
:10346000FFF81FBD8188CDE90012F5E701020203D4
:103470000405060708090A0B0C0D0E0F10100000BA
:103480000000000000000102030406070809000014
:103490000000010203040000B8340008000000200E
:1034A00058000000280100081035000858000020CE
:1034B0005807000044010008000000000000000060
:1034C000000000000000000000000000000080403C
:1034D0002010080402010000000000000000C0F9F4
:1034E000A4B0999282F88090407924301912027821
:1034F0000010FF83AB8EC3E1C18CF787CF000000C3
:103500000100000010000000000000000024F40092
:04000005080000ED02
:00000001FF
